:020000040000FA
:020000000528D1
:080008001828873083168100DF
:100010008312831686018501831290016130860068
:100020008510051410308100A0308B006400162864
:1000300010308100910A05301102031D69289101D9
:10004000900A2830100203182A2861308600851093
:1000500005146928323010020318372861308600F1
:1000600010186928023085066030860069283C3007
:1000700010020318422862308600101869280230E6
:10008000850669286430100203184B288C308600DE
:100090008514051069286E301002031858288C301A
:1000A0008600101C69280130850684308600692886
:1000B000783010020318642894308600101C001455
:1000C00010186928013069286130860085100514F0
:0800D0009001A0308B00090033
:02400E00FD3F74
:00000001FF
